:100000000C946A000C9492000C9492000C94920050
:100010000C9492000C9492000C9492000C94920018
:100020000C9492000C9492000C9492000C94920008
:100030000C9492000C9492000C9492000C949200F8
:100040000C9496050C9492000C9406060C94E00512
:100050000C9492000C9492000C9492000C949200D8
:100060000C9492000C949200BC08C0080809310955
:100070005F096A0979099109000000002300260040
:10008000290000000000240027002A0000000000D2
:10009000250028002B0004040404040404040202C4
:1000A00002020202030303030303010204081020F7
:1000B0004080010204081020010204081020000002
:1000C0000008000201000003040700000000000017
:1000D0000000F40911241FBECFEFD8E0DEBFCDBF72
:1000E00011E0A0E0B1E0EEE5F7E102C005900D926D
:1000F000AA34B107D9F721E0AAE4B1E001C01D920A
:10010000AF3FB207E1F710E0CAE6D0E004C02197A4
:10011000FE010E948E0BC936D107C9F70E9438062E
:100120000C94AD0B0C940000833081F028F48130E6
:1001300099F08230A1F008958730A9F08830B9F0A5
:100140008430D1F4809180008F7D03C08091800045
:100150008F7780938000089584B58F7702C084B52F
:100160008F7D84BD08958091B0008F7703C080910A
:10017000B0008F7D8093B00008951F93CF93DF93DD
:10018000282F30E0F901E254FF4F8491F901E65540
:10019000FF4FD491F901EA56FF4FC491CC23C1F02F
:1001A000162F81110E949400EC2FF0E0EE0FFF1F3C
:1001B000E457FF4FA591B4919FB7F894111104C073
:1001C0008C91D095D82302C0EC91DE2BDC939FBF9D
:1001D000DF91CF911F910895CF93DF9390E0FC01C1
:1001E000E655FF4F2491FC01EA56FF4F8491882386
:1001F00061F190E0880F991FFC01EE57FF4FC59108
:10020000D491FC01E457FF4FA591B491611109C04D
:100210009FB7F8948881209582238883EC912E23C0
:100220000BC0623061F49FB7F8948881322F30950B
:1002300083238883EC912E2B2C939FBF06C08FB70E
:10024000F894E8812E2B28838FBFDF91CF910895FA
:100250003FB7F8948091580190915901A0915A01AB
:10026000B0915B0126B5A89B05C02F3F19F0019600
:10027000A11DB11D3FBFBA2FA92F982F8827820F2C
:10028000911DA11DB11DBC01CD0142E0660F771F7C
:10029000881F991F4A95D1F708958F929F92AF9228
:1002A000BF92CF92DF92EF92FF926B017C010E948E
:1002B00028014B015C01C114D104E104F104F1F007
:1002C0000E942801DC01CB0188199909AA09BB0900
:1002D000883E9340A105B10570F321E0C21AD10810
:1002E000E108F10888EE880E83E0981EA11CB11C7D
:1002F000C114D104E104F10419F7DDCFFF90EF90B0
:10030000DF90CF90BF90AF909F908F900895CF9245
:10031000DF92EF92FF920F931F93CF93DF936C01C5
:100320007A018B01C0E0D0E0CE15DF0581F0D80165
:100330006D918D01D601ED91FC910190F081E02D40
:10034000C6010995892B11F02196EECF7E01C701D8
:10035000DF91CF911F910F91FF90EF90DF90CF90A1
:100360000895089580E090E00895FC01538D448D38
:10037000252F30E0842F90E0821B930B541710F050
:10038000CF96089501970895FC01918D828D98175D
:1003900061F0828DDF01A80FB11D5D968C91928D69
:1003A0009F5F9F73928F90E008958FEF9FEF089566
:1003B000FC01918D828D981731F0828DE80FF11D2F
:1003C000858D90E008958FEF9FEF0895FC01918D4A
:1003D000228D892F90E0805C9F4F821B91098F7343
:1003E000992708958EE591E00E94E60121E0892B8E
:1003F00009F420E0822F0895FC01848DDF01A80F0D
:10040000B11DA35ABF4F2C91848D90E001968F733C
:100410009927848FA689B7892C93A089B1898C915B
:10042000837080648C93938D848D981306C00288AA
:10043000F389E02D80818F7D80830895EF92FF9274
:100440000F931F93CF93DF93EC0181E0888F9B8DF7
:100450008C8D981305C0E889F989808185FD26C0B7
:10046000F62E0B8D10E00F5F1F4F0F731127E02E3C
:100470008C8DE8120CC00FB607FCFACFE889F98919
:10048000808185FFF5CFCE010E94FC01F1CF8B8DDD
:10049000FE01E80FF11DE35AFF4FF0829FB7F89479
:1004A0000B8FEA89FB89808180620AC09FB7F8942C
:1004B000EE89FF896083E889F9898081837080648F
:1004C00080839FBF81E090E0DF91CF911F910F91DA
:1004D000FF90EF900895CF93DF93EC01888D8823F0
:1004E000C9F0EA89FB89808185FD05C0A889B989A1
:1004F0008C9186FD0FC00FB607FCF5CF808185FF7C
:10050000F2CFA889B9898C9185FFEDCFCE010E94E9
:10051000FC01E7CFDF91CF91089520E431E0DC01C9
:100520002D933C9380914C0190914D01009739F0AF
:10053000DC01ED91FC910280F381E02D0995809121
:100540004E0190914F01009739F0DC01ED91FC9143
:100550000280F381E02D099580914A0190914B0131
:10056000009739F0DC01ED91FC910280F381E02DE0
:10057000099580915C0190915D01009739F0DC0153
:10058000ED91FC910280F381E02D099564E670E025
:1005900080E090E00C944D01CF93DF93FC01DC01EF
:1005A0001D928CE0ED0119928A95E9F71586168661
:1005B0001786DF91CF910895009769F0FC010190B3
:1005C0000020E9F73197AF01481B590BBC018EE5BC
:1005D00091E00C94870180E090E008958F929F92C3
:1005E000AF92BF920F931F93CF93DF93CDB7DEB738
:1005F000A1970FB6F894DEBF0FBECDBF19A242304F
:1006000008F44AE08E010F5D1F4F842E912CA12C1F
:10061000B12CA50194010E946C0BE62FB901CA010F
:1006200001501109EA3014F4E05D01C0E95CD80121
:10063000EC93232B242B252B61F7C8010E94DC02AD
:10064000A1960FB6F894DEBF0FBECDBFDF91CF915C
:100650001F910F91BF90AF909F908F900895CF9270
:10066000DF92EF92FF92FC016B019681278180E17E
:10067000AB0142279A013695322F222737952795CD
:100680009695922B292F30E0D901AA0FAB2FAA1FE4
:10069000BB0BA901B4E055954795BA95E1F74A27F8
:1006A000492753E0359527955A95E1F72427759505
:1006B00067958150E9F6278396830D2C000CEE0890
:1006C000FF08F7FE0EC06DE28EE591E00E941E026B
:1006D00066277727CB016C197D098E099F094AE0AF
:1006E00003C04AE0C701B6010E94EE0284E491E033
:1006F000FF90EF90DF90CF900C94DC021F93CF938C
:10070000DF93EC01142F0E942F03612F70E0CE01C4
:100710000E942F036E8170E080E090E04AE00E942A
:10072000EE0286E491E00E94DC021E821F82DF91CD
:10073000CF911F910895CF93DF93EC010E942F0377
:100740006E8170E080E090E04AE00E94EE0286E474
:1007500091E00E94DC021E821F82DF91CF910895FA
:10076000FF920F931F93CF93DF93EC0192E0F92E4A
:1007700000E010E0EA81FB81608170E0002E02C0A1
:10078000759567950A94E2F761708F2D0E94BD0000
:100790000F5F1F4FF3940830110561F78AE0F82EC0
:1007A00000E010E0EA81FB81618170E0002E02C070
:1007B000759567950A94E2F761708F2D0E94BD00D0
:1007C0000F5F1F4FF3940830110561F76FEB7BE06B
:1007D00080915C0190915D01DF91CF911F910F910C
:1007E000FF900C949B03CF93DC01C62F9FEF960FD5
:1007F000892F8695869586951296ED91FC91139793
:10080000E80FF11D977041E050E060E070E004C037
:10081000440F551F661F771F9A95D2F78081482B8A
:100820004083CD010E94B0034C2F69EE73E08091AC
:100830005C0190915D01CF910C947E03CF93DC011C
:10084000C62F9FEF960F892F8695869586951296CF
:10085000ED91FC911397E80FF11D977041E050E086
:1008600060E070E004C0440F551F661F771F9A9523
:10087000D2F74095808148234083CD010E94B00388
:100880004C2F68EE73E080915C0190915D01CF91F7
:100890000C947E0328E331E0FC013183208363EC78
:1008A0007BE080915C0190915D010E949B0364E676
:1008B00070E080E090E00C944D010E94A80BCF9373
:1008C000DF93EC0184E291E0998388836EEB7BE017
:1008D00080915C0190915D010E949B038A819B81C4
:1008E0000E94B90A64E670E080E090E0DF91CF9169
:1008F0000C944D01CF93DF93EC010E945F04CE0175
:10090000DF91CF910C94B90ACF93DF93EC010E9451
:100910004A04CE01DF91CF910C94B90ACF93DF93B3
:10092000EC010E948D02CE01DF91CF910C94B90AA7
:1009300020E331E0FC0131832083838194810E9494
:10094000B90A61EC7BE080915C0190915D010E94AD
:100950009B0364E670E080E090E00C944D01CF933F
:10096000DF93EC010E949804CE01DF91CF910C94AB
:10097000B90ACF93DF93EC018CE191E099838883EE
:100980006AEB7BE0CE010E949B038A819B810E94DF
:10099000B90A8C819D810E94B90A64E670E080E00A
:1009A00090E0DF91CF910C944D01CF93DF93EC0158
:1009B0000E94B904CE01DF91CF910C94B90ACF9275
:1009C000DF92FF920F931F93CF93DF93C0915C014F
:1009D000D0915D01209709F49BC08EE591E00E94C3
:1009E000C4018F3F09F494C090ED980F9A3080F4C1
:1009F000EA81FB819081990F292F220F220F920FFC
:100A00009053890F8083EA81FB8181E0868780C0D3
:100A1000803219F08D3009F07BC0EA81FB81968528
:100A20009923C1F095859C3090F4DF01A90FB11D89
:100A3000908111969C93EA81FB8195859F5F9587B4
:100A4000EA81FB811082EA81FB81168603C091E076
:100A5000909350018D3009F05BC0EA81FB810585E0
:100A6000FF24FA94F00EBF016F5F7F4FDB0180E03F
:100A700040E09A2F961B9F1510F51D9150E181279C
:100A800020E8829FC00111244695482B842F90E0D6
:100A90006C01CC0CCD2CCC1CDD089C0174E0359590
:100AA00027957A95E1F72C25242733E095958795AE
:100AB0003A95E1F782271695515009F7DACFDF0111
:100AC000A00FB11D8C9184130BC081E087878C81AE
:100AD0009D810E94B90A8A819B819D838C830FC06E
:100AE00062ED77E0CE010E947E038A819B810E94A5
:100AF000B90A62E370E080E090E00E944D0180E17D
:100B000090E00E94210A8C010E94CC021B830A8380
:100B1000DF91CF911F910F91FF90DF90CF900895BB
:100B20000E94F20181110C94DF0408951F920F922C
:100B30000FB60F9211242F933F938F939F93AF93F0
:100B4000BF938091540190915501A0915601B091AD
:100B500057013091530123E0230F2D3720F40196E4
:100B6000A11DB11D05C026E8230F0296A11DB11DD0
:100B7000209353018093540190935501A093560103
:100B8000B09357018091580190915901A0915A0159
:100B9000B0915B010196A11DB11D80935801909306
:100BA0005901A0935A01B0935B01BF91AF919F91FE
:100BB0008F913F912F910F900FBE0F901F9018951E
:100BC0001F920F920FB60F9211242F933F934F93C2
:100BD0005F936F937F938F939F93AF93BF93EF93A5
:100BE000FF938EE591E00E94FC01FF91EF91BF9190
:100BF000AF919F918F917F916F915F914F913F91B5
:100C00002F910F900FBE0F901F9018951F920F926B
:100C10000FB60F9211242F938F939F93EF93FF930F
:100C2000E0916E01F0916F018081E0917401F0918B
:100C3000750182FD12C09081809177018F5F8F7363
:100C400020917801821751F0E0917701F0E0E25AAB
:100C5000FE4F958F8093770101C08081FF91EF91C6
:100C60009F918F912F910F900FBE0F901F9018950D
:100C7000CF93DF9300D000D000D0CDB7DEB778940B
:100C800084B5826084BD84B5816084BD85B5826091
:100C900085BD85B5816085BD80916E008160809342
:100CA0006E001092810080918100826080938100AB
:100CB00080918100816080938100809180008160BB
:100CC000809380008091B10084608093B100809116
:100CD000B00081608093B00080917A00846080933E
:100CE0007A0080917A00826080937A0080917A0005
:100CF000816080937A0080917A00806880937A0086
:100D00001092C10082E090E00E94210A6C0180E410
:100D100091E0D6018D939C9388E090E00E94210A97
:100D20008C018CE191E0F801918380831682178217
:100D3000E0916E01F0916F0182E08083E0916A01A1
:100D4000F0916B011082E0916C01F0916D018FECDC
:100D5000808310927601E0917201F091730186E038
:100D60008083E0917001F0917101808180618083C6
:100D7000E0917001F0917101808188608083E09141
:100D80007001F0917101808180688083E091700131
:100D9000F091710180818F7D808380E190E00E94DD
:100DA000210A7C010E94CC02D8011396FC92EE929B
:100DB000129780E190E00E94210A7C010E94CC02FF
:100DC000F801F582E48269EB7BE0C8010E949B0395
:100DD00010935D0100935C016BEB7BE0C8010E9406
:100DE0009B0384E090E00E94210A7C0184E291E070
:100DF000D7018D939C9382E090E00E94210A2FEF0F
:100E0000FC0120832183D70113969C938E93129724
:100E100012E061E0812F0E94EC0061E0812F0E94CE
:100E2000BD001F5F1E30A9F76DEB7BE080915C0178
:100E300090915D010E949B03F0924D01E0924C0164
:100E400087E090E00E94210A8C0180E391E0F801A4
:100E50009183808381E090E00E94420BD80112963A
:100E60008C93E82EF12CC7010E94210AE80EF91E8E
:100E7000FC01EE15FF0511F01192FBCFF8019483F0
:100E800083831582168261E08EE00E94EC0061E0AF
:100E90008FE00E94EC0060E080E10E94EC0060E0E6
:100EA0008FE00E94BD00D80112964C9160EC7BE06F
:100EB00080915C0190915D010E947E0310934F012F
:100EC00000934E0182E090E00E94210A8C0188E3A9
:100ED00091E0F8019183808362EC7BE080915C017A
:100EE00090915D010E949B0310934B0100934A0176
:100EF0006CEB7BE080915C0190915D010E949B0313
:100F0000D0925201C09251019DE088E10FB6F89451
:100F1000A895809360000FBE909360009E012F5FA4
:100F20003F4F3C832B8300914E0110914F0161E0B4
:100F30008EE00E94BD0059E0E52EF12CA12CB12CD1
:100F4000412C512CD80112968C91129790E0A81642
:100F5000B9060CF060C01396ED91FC911497EA0D60
:100F6000FB1DC080D12C3701B9E06B1A7108470115
:100F7000E8E08E1A91089601217033273E832D8375
:100F8000EEECF0E08491EAEBF0E02490E6EAF0E0A9
:100F900034903320A1F081110E949400E32DF0E001
:100FA000EE0FFF1FE858FF4FA591B4918C912822B6
:100FB00031E020E009F430E0832F922F02C080E07E
:100FC00090E02D813E81281B390BC901213031056C
:100FD00021F423014094509403C0019609F42401A4
:100FE00061E08FE00E94BD0060E08FE00E94BD00E4
:100FF000D594C7946FEF861A960A7FEF671A770A1F
:10100000E814F90409F0B7CF8FEFA81AB80A98E0EE
:10101000E90EF11C97CF60E08EE00E94BD00542DD8
:10102000442009F48EC0D80115968C911597481666
:1010300031F016961C92169715964C9282C0F801C4
:1010400086818F5F8683833008F47BC0E42C440C58
:10105000FF08C701F7FE04C0882799278E199F094A
:10106000482F815020915C0130915D01D801139689
:101070006D917C911497982F9778151684F587FFBA
:1010800002C086E0840F859585958595FB01E80F64
:10109000F11D87FDFA9597FF03C09150986F9F5FF0
:1010A00061E070E002C0660F771F9A95E2F7CB010E
:1010B0009081890F80836CEE73E0C9010E947E03EA
:1010C00000914C0110914D01C70101960E94420B05
:1010D000D801ED91FC910480F581E02D2FC087FFB0
:1010E00002C086E0840F859585958595FB01E80F04
:1010F000F11D87FDFA9597FF03C09150986F9F5F90
:1011000061E070E001C0660F9A95EAF78081861B66
:1011100080836DEE73E0C9010E947E0300914C0153
:1011200010914D0181E090E08E199F090E94420BC1
:10113000D801ED91FC910680F781E02D682FC80160
:101140000995E0905C01F0905D01F7010481158143
:10115000D8011F968C911F97882309F41DC1119601
:10116000EC918E2F90E08830910508F00DC1FC01C4
:10117000EC5CFF4F0C948E0B81E08093500109C111
:1011800080E090E00E94420B482F6EEE73E0C701B2
:101190000E947E0381E090E00E94420B482F6FEE98
:1011A00073E080915C0190915D010E947E0322E0DA
:1011B000E22EF12CC12CD12C60EF73E080915C0108
:1011C00090915D010E942F035701B8E0AB0EB11C56
:1011D000C7010E94420B682F70E080915C019091E2
:1011E0005D010E942F03EFEFEE1AFE0AAE14BF045A
:1011F00079F7B60180915C0190915D010E949B039B
:10120000FFEFCF1ADF0A28E0C216D104A9F6C1C049
:10121000A0904C01B0904D01EE24E394F12CC090CD
:101220005C01D0905D016AEE73E0C6010E942F035D
:10123000B701C6010E942F03D5011296ED91FC91D2
:101240001397EE0DFF1D608170E080915C0190911D
:101250005D010E949B03B1E0EB1AF10808F499C00C
:10126000DECFC0904E01D0904F01E12CF12CD60181
:1012700012968C9190E0E816F9060CF08AC0A090C6
:101280005C01B0905D016BEE73E0C5010E942F031D
:10129000B701C5010E942F03D6011396ED91FC9171
:1012A0001497EE0DFF1D608170E080915C019091BC
:1012B0005D010E949B03BFEFEB1AFB0AD8CF809120
:1012C0004C0190914D01DC01ED91FC910480F58180
:1012D000E02D0AC080914C0190914D01DC01ED910F
:1012E000FC910680F781E02DD80112966C9109954A
:1012F00050C0F801C380D280ED2CF12CC7010E94B0
:10130000420B8C1521F06C2DC7010E944A0B4D2D0C
:1013100065EC7BE080915C0190915D010E947E0311
:1013200038C0C090FB01D090FC01C114D10421F45D
:101330008FEFC82E81E0D82E61EF73E0C7010E94C5
:101340002F038B819C818C199D0964E670E00E94BB
:10135000580B7727C7010E942F038091FB019091C2
:10136000FC01009711F48FEF91E02B813C81281B49
:10137000390BC90164E670E00E94580BBC018091F2
:101380005C0190915D0103C061ED77E0C7010E94AF
:101390009B03D8011F961C928091FB019091FC0148
:1013A000009711F48FEF91E0EB81FC81E81BF90BC2
:1013B000E436F1051CF481E080935001A8958091FA
:1013C0005001882371F060ED77E080915C0190918D
:1013D0005D010E949B0368EE73E080E090E00E9454
:1013E0004D010E9490059FCDEEE5F1E0138212823F
:1013F00088EE93E0A0E0B0E084839583A683B78372
:101400008AE091E09183808385EC90E095878487E2
:1014100084EC90E09787868780EC90E0918B808BBE
:1014200081EC90E0938B828B82EC90E0958B848BA7
:1014300086EC90E0978B868B118E128E138E148E15
:1014400008950F931F93CF93DF938230910510F48B
:1014500082E090E0E091FD01F091FE0120E030E0BB
:10146000A0E0B0E0309719F14081518102811381F1
:1014700048175907C8F08417950769F4109731F099
:1014800012960C93129713961C9327C00093FD019C
:101490001093FE0122C02115310519F042175307A0
:1014A00018F49A01BD01EF01DF01F801DBCF21152E
:1014B0003105F9F0281B390B2430310580F48A817D
:1014C0009B816115710521F0FB019383828304C028
:1014D0009093FE018093FD01FE01329644C0FE010F
:1014E000E20FF31F819391932250310939832883AE
:1014F0003AC02091FB013091FC01232B41F4209153
:101500000201309103013093FC012093FB012091F3
:101510000001309101012115310541F42DB73EB78D
:101520004091040150910501241B350BE091FB0112
:10153000F091FC01E217F307A0F42E1B3F0B2817D4
:10154000390778F0AC014E5F5F4F2417350748F03C
:101550004E0F5F1F5093FC014093FB0181939193C9
:1015600002C0E0E0F0E0CF01DF91CF911F910F9139
:101570000895CF93DF93009709F481C0FC0132975F
:1015800013821282A091FD01B091FE01109781F4A7
:1015900020813181820F931F2091FB013091FC014A
:1015A0002817390751F5F093FC01E093FB0167C060
:1015B000ED0120E030E0CE17DF0740F44A815B8187
:1015C0009E0141155105F1F0EA01F5CFD383C283A5
:1015D00040815181840F951FC817D90759F488811C
:1015E0009981840F951F0296918380838A819B81C4
:1015F000938382832115310529F4F093FE01E09352
:10160000FD013DC0E901FB83EA8349915991C40F73
:10161000D51FEC17FD0761F480819181840F951F20
:101620000296E90199838883828193819B838A83CF
:10163000E0E0F0E012968D919C911397009719F0DD
:10164000FD01DC01F7CF8D919C9111979D012E5FDB
:101650003F4F820F931F2091FB013091FC0128170F
:10166000390769F4309729F41092FE011092FD01B8
:1016700002C013821282B093FC01A093FB01DF91A0
:10168000CF910895F999FECF92BD81BDF89A99271F
:1016900080B50895262FF999FECF1FBA92BD81BD5E
:1016A00020BD0FB6F894FA9AF99A0FBE01960895E4
:1016B00097FB072E16F4009407D077FD09D00E94FF
:1016C000940B07FC05D03EF4909581959F4F0895AB
:1016D000709561957F4F0895A1E21A2EAA1BBB1B3E
:1016E000FD010DC0AA1FBB1FEE1FFF1FA217B307EE
:1016F000E407F50720F0A21BB30BE40BF50B661F04
:10170000771F881F991F1A9469F7609570958095C7
:1017100090959B01AC01BD01CF010895EE0FFF1F15
:101720000590F491E02D0994AA1BBB1B51E107C061
:10173000AA1FBB1FA617B70710F0A61BB70B881F61
:10174000991F5A95A9F780959095BC01CD010895F0
:0E17500081E090E0F8940C94AD0BF894FFCF7C
:10175E000000FF018000000000001E028701B5019D
:10176E006B02E601C401D80100000000B904D504E3
:10177E00000000005F047A041E04F3030000000062
:10178E009804AF04000000004A0484040000000026
:0A179E008D028E0420000D0A0000E9
:00000001FF
