:100000000C946A000C9492000C9492000C94920050
:100010000C9492000C9492000C9492000C94920018
:100020000C9492000C9492000C9492000C94920008
:100030000C9492000C9492000C9492000C949200F8
:100040000C94B0050C9492000C9420060C94FA05C4
:100050000C9492000C9492000C9492000C949200D8
:100060000C9492000C949200DC08E00828095109D5
:100070007E0989099809B1090000000023002600C3
:10008000290000000000240027002A0000000000D2
:10009000250028002B0004040404040404040202C4
:1000A00002020202030303030303010204081020F7
:1000B0004080010204081020010204081020000002
:1000C0000008000201000003040700000000000017
:1000D0000000110A11241FBECFEFD8E0DEBFCDBF54
:1000E00011E0A0E0B1E0E0EBF7E102C005900D9275
:1000F000AA34B107D9F722E0AAE4B1E001C01D9209
:10010000A030B207E1F710E0CAE6D0E004C02197C2
:10011000FE010E94B70BC936D107C9F70E945206EB
:100120000C94D60B0C940000833081F028F48130BD
:1001300099F08230A1F008958730A9F08830B9F0A5
:100140008430D1F4809180008F7D03C08091800045
:100150008F7780938000089584B58F7702C084B52F
:100160008F7D84BD08958091B0008F7703C080910A
:10017000B0008F7D8093B00008951F93CF93DF93DD
:10018000282F30E0F901E254FF4F8491F901E65540
:10019000FF4FD491F901EA56FF4FC491CC23C9F027
:1001A000162F81110E949400EC2FF0E0EE0FFF1F3C
:1001B000E457FF4FA591B4918FB7F894111105C082
:1001C0009C91ED2FE095E92302C0EC91ED2BEC938F
:1001D0008FBFDF91CF911F910895CF93DF9390E070
:1001E000FC01E655FF4F2491FC01EA56FF4F849134
:1001F000882361F190E0880F991FFC01EE57FF4FB3
:10020000C591D491FC01E457FF4FA591B4916111C0
:1002100009C09FB7F8948881209582238883EC9148
:100220002E230BC0623061F49FB7F8943881822F7F
:10023000809583238883EC912E2B2C939FBF06C03F
:100240008FB7F894E8812E2B28838FBFDF91CF9151
:1002500008953FB7F89480915B0190915C01A09163
:100260005D01B0915E0126B5A89B05C02F3F19F036
:100270000196A11DB11D3FBFBA2FA92F982F882726
:10028000820F911DA11DB11DBC01CD0142E0660F81
:10029000771F881F991F4A95D1F708958F929F92D3
:1002A000AF92BF92CF92DF92EF92FF926B017C01EF
:1002B0000E9429014B015C01C114D104E104F10445
:1002C000F1F00E942901DC01CB0188199909AA09E2
:1002D000BB09883E9340A105B10570F321E0C21A25
:1002E000D108E108F10888EE880E83E0981EA11C71
:1002F000B11CC114D104E104F10419F7DDCFFF9062
:10030000EF90DF90CF90BF90AF909F908F90089527
:10031000CF92DF92EF92FF920F931F93CF93DF93D1
:100320006C017A018B01C0E0D0E0CE15DF0589F0C9
:10033000D8016D918D01D601ED91FC910190F08174
:10034000E02DC6010995892B11F47E0102C021968A
:10035000ECCFC701DF91CF911F910F91FF90EF90EC
:10036000DF90CF900895089580E090E00895FC011B
:10037000538D448D252F30E0842F90E0821B930B0A
:10038000541710F0CF96089501970895FC01918DB0
:10039000828D981761F0828DDF01A80FB11D5D96E7
:1003A0008C91928D9F5F9F73928F90E008958FEF55
:1003B0009FEF0895FC01918D828D981731F0828D09
:1003C000E80FF11D858D90E008958FEF9FEF089560
:1003D000FC01918D228D892F90E0805C9F4F821BC4
:1003E00091098F73992708958FE591E00E94E801A4
:1003F00021E0892B09F420E0822F0895FC01848DEF
:10040000DF01A80FB11DA35ABF4F2C91848D90E03E
:1004100001968F739927848FA689B7892C93A08919
:10042000B1898C9180648C93938D848D981306C0D0
:100430000288F389E02D80818F7D80830895EF927B
:10044000FF920F931F93CF93DF93EC0181E0888F8E
:100450009B8D8C8D981305C0E889F989808185FD75
:1004600024C0F62E0B8D10E00F5F1F4F0F73112766
:10047000E02E8C8DE8120CC00FB607FCFACFE8898D
:10048000F989808185FFF5CFCE010E94FE01F1CF71
:100490008B8DFE01E80FF11DE35AFF4FF0820B8FA9
:1004A000EA89FB898081806207C0EE89FF896083C9
:1004B000E889F98980818064808381E090E0DF9120
:1004C000CF911F910F91FF90EF900895CF93DF93FD
:1004D000EC01888D8823C9F0EA89FB89808185FD3C
:1004E00005C0A889B9898C9186FD0FC00FB607FC9D
:1004F000F5CF808185FFF2CFA889B9898C9185FFDE
:10050000EDCFCE010E94FE01E7CFDF91CF9108959C
:1005100020E431E0DC012D933C9380914C019091DB
:100520004D01009739F0DC01ED91FC910280F381DF
:10053000E02D099580914F0190915001009739F07D
:10054000DC01ED91FC910280F381E02D0995809111
:100550004A0190914B01009739F0DC01ED91FC913B
:100560000280F381E02D0995809151019091520113
:10057000009739F0DC01ED91FC910280F381E02DD0
:10058000099564E670E080E090E00C944E01CF9312
:10059000DF93FC01DC011D928CE0ED0119928A953C
:1005A000E9F7158616861786DF91CF910895009793
:1005B00069F0FC0101900020E9F73197AF01481B79
:1005C000590BBC018FE591E00C94880180E090E02C
:1005D00008958F929F92AF92BF920F931F93CF93E4
:1005E000DF93CDB7DEB7A1970FB6F894DEBF0FBE8D
:1005F000CDBF19A2423008F44AE08E010F5D1F4FB3
:10060000842E912CA12CB12CA50194010E94950B54
:10061000E62FB901CA0101501109EA3014F4E05D76
:1006200001C0E95CD801EC93232B242B252B61F727
:10063000C8010E94D702A1960FB6F894DEBF0FBE84
:10064000CDBFDF91CF911F910F91BF90AF909F9041
:100650008F9008950E94D10BCF93DF93EC010E94FD
:100660008802CE01DF91CF910C94D30ACF92DF9212
:10067000EF92FF92FC016B019681278180E1AB0133
:1006800042279A013695322F22273795279596953E
:10069000922B292F30E0D901AA0FAB2FAA1FBB0B39
:1006A000A901B4E055954795BA95E1F74A2749273E
:1006B00053E0359527955A95E1F724277595679569
:1006C0008150E9F6278396830D2C000CEE08FF0875
:1006D000F7FE14C0E0915F01F09160010190F0819C
:1006E000E02D6DE28FE591E0099566277727CB0134
:1006F0006C197D098E099F094AE003C04AE0C701D1
:10070000B6010E94E90284E491E0FF90EF90DF904F
:10071000CF900C94D7020F931F93CF93DF931F9228
:10072000CDB7DEB78C0149830E9436034981642F1F
:1007300070E0C8010E943603F801668170E080E035
:1007400090E04AE00E94E90286E491E00E94D7022C
:10075000F801168217820F90DF91CF911F910F91B0
:100760000895CF92DF92FF920F931F93CF93DF9361
:10077000C0915101D0915201209709F49BC08FE59F
:1007800091E00E94C6018F3F09F494C090ED980F4C
:100790009A3080F4EA81FB819081990F292F220FF2
:1007A000220F920F9053890F8083EA81FB8181E0B1
:1007B000868780C0803219F08D3009F07BC0EA81D5
:1007C000FB8196859923C1F095859C3090F4DF01DB
:1007D000A90FB11D908111969C93EA81FB819585AB
:1007E0009F5F9587EA81FB811082EA81FB811686F3
:1007F00003C091E0909353018D3009F05BC0EA8112
:10080000FB810585FF24FA94F00EBF016F5F7F4FD7
:10081000DB0180E040E09A2F961B9F1510F51D919B
:1008200050E1812720E8829FC00111244695482B82
:10083000842F90E06C01CC0CCD2CCC1CDD089C01ED
:1008400074E0359527957A95E1F72C25242733E038
:10085000959587953A95E1F782271695515009F7B6
:10086000DACFDF01A00FB11D8C9148130BC081E0DE
:1008700087878C819D810E94D30A8A819B819D8379
:100880008C830FC062ED77E0CE010E948B038A81DA
:100890009B810E94D30A62E370E080E090E00E94B6
:1008A0004E0180E190E00E943E0A8C010E94C70246
:1008B0001B830A83DF91CF911F910F91FF90DF90EF
:1008C000CF9008950E94F40181110C94B103089512
:1008D000CF93DF93EC010E9436036E8170E080E0DD
:1008E00090E04AE00E94E90286E491E00E94D7028B
:1008F0001E821F82DF91CF9108950F931F93CF9394
:10090000DF93EC0100E010E0EA81FB81608170E0A0
:10091000002E02C0759567950A94E2F761707727FB
:1009200082E0800F0E94BD000F5F1F4F083011054D
:1009300059F700E010E0EA81FB81618170E0002E50
:1009400002C0759567950A94E2F7617077278AE08F
:10095000800F0E94BD000F5F1F4F0830110559F72F
:100960006FEB7BE08091510190915201DF91CF912B
:100970001F910F910C9468040F931F93CF93DF93F3
:100980001F92CDB7DEB7DC019FEF960F892F8695BA
:10099000869586951296ED91FC911397E80FF11DBF
:1009A000977001E010E020E030E004C0000F111F5C
:1009B000221F331F9A95D2F78081082B0083CD0127
:1009C00069830E947D04498169EE73E08091510141
:1009D000909152010F90DF91CF911F910F910C9444
:1009E0008B030F931F93CF93DF931F92CDB7DEB787
:1009F000DC019FEF960F892F869586958695129636
:100A0000ED91FC911397E80FF11D977001E010E054
:100A100020E030E004C0000F111F221F331F9A9501
:100A2000D2F70095808108230083CD0169830E945D
:100A30007D04498168EE73E08091510190915201EB
:100A40000F90DF91CF911F910F910C948B03CF9357
:100A5000DF93EC0184E291E0998388836EEB7BE085
:100A600080915101909152010E9468048A819B817A
:100A70000E94D30A64E670E080E090E0DF91CF91BD
:100A80000C944E01CF93DF93EC010E942705CE0119
:100A9000DF91CF910C94D30A28E331E0FC0131833C
:100AA000208363EC7BE080915101909152010E9480
:100AB000680464E670E080E090E00C944E01CF930F
:100AC000DF93EC010E944C05CE01DF91CF910C9495
:100AD000D30A20E331E0FC013183208383819481B8
:100AE0000E94D30A61EC7BE0809151019091520108
:100AF0000E94680464E670E080E090E00C944E018F
:100B0000CF93DF93EC010E946905CE01DF91CF9175
:100B10000C94D30ACF93DF93EC018CE191E099839D
:100B200088836AEB7BE0CE010E9468048A819B8106
:100B30000E94D30A8C819D810E94D30A64E670E0F2
:100B400080E090E0DF91CF910C944E01CF93DF9342
:100B5000EC010E948A05CE01DF91CF910C94D30A5B
:100B60001F920F920FB60F9211242F933F938F93E2
:100B70009F93AF93BF938091570190915801A0919B
:100B80005901B0915A013091560123E0230F2D37BE
:100B900020F40196A11DB11D05C026E8230F029681
:100BA000A11DB11D209356018093570190935801C8
:100BB000A0935901B0935A0180915B0190915C011F
:100BC000A0915D01B0915E010196A11DB11D8093C0
:100BD0005B0190935C01A0935D01B0935E01BF91B6
:100BE000AF919F918F913F912F910F900FBE0F90DA
:100BF0001F9018951F920F920FB60F9211242F93EA
:100C00003F934F935F936F937F938F939F93AF9394
:100C1000BF93EF93FF938FE591E00E94FE01FF9158
:100C2000EF91BF91AF919F918F917F916F915F9164
:100C30004F913F912F910F900FBE0F901F901895DD
:100C40001F920F920FB60F9211242F938F939F93A1
:100C5000EF93FF93E0916F01F09170018081E0913B
:100C60007501F091760182FD12C09081809178012A
:100C70008F5F8F7320917901821751F0E091780195
:100C8000F0E0E15AFE4F958F8093780101C080819A
:100C9000FF91EF919F918F912F910F900FBE0F9029
:100CA0001F901895CF93DF93CDB7DEB72A970FB675
:100CB000F894DEBF0FBECDBF789484B5826084BD4A
:100CC00084B5816084BD85B5826085BD85B5816050
:100CD00085BD80916E00816080936E0010928100CE
:100CE0008091810082608093810080918100816089
:100CF000809381008091800081608093800080914A
:100D0000B10084608093B1008091B00081608093D5
:100D1000B00080917A00846080937A0080917A009C
:100D2000826080937A0080917A00816080937A005B
:100D300080917A00806880937A001092C10082E0EE
:100D400090E00E943E0A6C0180E491E0D6018D9310
:100D50009C9388E090E00E943E0A8C018CE191E037
:100D6000F8019183808316821782E0916F01F091E0
:100D7000700182E08083E0916B01F0916C01108240
:100D8000E0916D01F0916E018FEC808310927701FC
:100D9000E0917301F091740186E08083E09171012C
:100DA000F0917201808180618083E0917101F09106
:100DB0007201808188608083E0917101F0917201FD
:100DC000808180688083E0917101F091720180815F
:100DD0008F7D808380E190E00E943E0A7C010E942A
:100DE000C702D8011396FC92EE92129780E190E030
:100DF0000E943E0A7C010E94C702F801F582E4824B
:100E000069EB7BE0C8010E946804109352010093D3
:100E100051016BEB7BE0C8010E94680484E090E024
:100E20000E943E0A7C0184E291E0D7018D939C935D
:100E300082E090E00E943E0A2FEFFC012083218394
:100E4000D70113969C938E93129712E061E0812F45
:100E50000E94ED0061E0812F0E94BD001F5F1E30E7
:100E6000A9F76DEB7BE080915101909152010E94B6
:100E70006804F0924D01E0924C0187E090E00E94FE
:100E80003E0A8C0180E391E0F8019183808381E048
:100E900090E00E946B0BD80112968C93E82EF12CF7
:100EA000C7010E943E0AE80EF91EFC01EE15FF057F
:100EB00011F01192FBCFF80194838383158216827F
:100EC00061E08EE00E94ED0061E08FE00E94ED00A5
:100ED00060E080E10E94ED0060E08FE00E94BD00D4
:100EE000D80112964C9160EC7BE080915101909179
:100EF00052010E948B031093500100934F0182E036
:100F000090E00E943E0A8C0188E391E0F801918311
:100F1000808362EC7BE080915101909152010E94AC
:100F2000680410934B0100934A016CEB7BE08091C5
:100F30005101909152010E946804D0925501C092D3
:100F400054019DE088E10FB6F894A8958093600065
:100F50000FBE90936000CC24C394D12C9E012F5FD0
:100F60003F4F190100914F011091500161E08EE057
:100F70000E94BD00612C712C812C912CA12CB12CD4
:100F8000D80112968C9190E0881699060CF06CC0EE
:100F9000D8011396ED91FC911497E80DF91DE080AE
:100FA000F12C412C512C9601261937093C832B83B7
:100FB0009301215031093E832D83970121703327FE
:100FC000EEECF0E08491EAEBF0E09491E6EAF0E0F8
:100FD00044914423E9F0882351F02F8338874A87CE
:100FE00099870E94940099854A8538852F81E42F3E
:100FF000F0E0EE0FFF1FE858FF4FA591B4918C91E0
:10100000982351E040E009F450E0852F942F02C06E
:1010100080E090E0281B390B2130310529F4AD80A8
:10102000BE80A418B50807C02F3F3F4F21F4AB8006
:10103000BC80A40CB51C61E08FE00E94BD0060E0A4
:101040008FE00E94BD00F594E7942FEF421A520AF8
:1010500038E04316510409F0B0CF6FEF861A960AB4
:1010600078E0671A71088CCF60E08EE00E94BD00C6
:10107000FA2CAA2031F0F8018581A81621F01682F9
:10108000A582F12C57C086818F5F86838330C8F399
:101090008A2DAA0C990B97FF03C091958195910910
:1010A000482F9FEF980F2091510130915201F80184
:1010B00063817481892F87781F14F4F497FF02C02D
:1010C00096E0940F959595959595FB01E90FF11D87
:1010D00097FDFA9587FF03C08150886F8F5FB60137
:1010E00002C0660F771F8A95E2F7CB019081890FC6
:1010F00080836CEE73E01BC097FF02C096E0940FF4
:10110000959595959595FB01E90FF11D97FDFA953C
:1011100087FF03C08150886F8F5FB60101C0660FE3
:101120008A95EAF78081861B80836DEE73E0C901A2
:101130000E948B03F0924E01FF2019F18F2D0F2C8E
:10114000000C990B00914C0110914D011F1454F4A7
:1011500001960E946B0BD801ED91FC910480F58102
:10116000E02D0CC0F601E81BF90BCF010E946B0BC0
:10117000D801ED91FC910680F781E02D682FC80120
:101180000995E0905101F0905201F7010481158119
:10119000D8011F968C911F97882309F41BC11196C3
:1011A000EC918E2F90E08830910508F00BC1FC0186
:1011B000EC5CFF4F0C94B70B81E08093530107C1A7
:1011C00080E090E00E946B0B482F6EEE73E0C70149
:1011D0000E948B0381E090E00E946B0B482F6FEE22
:1011E00073E080915101909152010E948B0322E0A3
:1011F000E22EF12CA12CB12C60EF73E08091510113
:10120000909152010E9436034701B8E08B0E911C69
:10121000C7010E946B0B682F70E080915101909183
:1012200052010E943603EFEFEE1AFE0AE814F904A9
:1012300079F7B50180915101909152010E946804A3
:10124000FFEFAF1ABF0A28E0A216B104A9F6BFC08B
:10125000A0904C01B0904D01EE24E394F12C8090CD
:101260005101909052016AEE73E0C4010E9436036E
:10127000B701C4010E943603D5011296ED91FC918D
:101280001397EE0DFF1D608170E0809151019091E8
:1012900052010E946804EF2809F499C0E12CF12C56
:1012A000DECFE0904F01F0905001A12CB12CF7015E
:1012B000828190E0A816B9060CF089C08090510197
:1012C000909052016BEE73E0C4010E943603B501A9
:1012D000C4010E943603D7011396ED91FC91149737
:1012E000EA0DFB1D608170E08091510190915201E7
:1012F0000E946804BFEFAB1ABB0AD9CF80914C01A2
:1013000090914D01DC01ED91FC910480F581E02D7F
:101310000AC080914C0190914D01DC01ED91FC914E
:101320000680F781E02DD80112966C9109954FC087
:10133000F8016381B280EB2CF12CC7016F830E940E
:101340006B0B6F81681719F0C7010E94730B4B2D4F
:1013500065EC7BE080915101909152010E948B03DA
:1013600036C0A090FC01B090FD01A114B10421F49D
:1013700080E0A82E82E0B82E61EF73E0C7010E94E2
:101380003603C1018A199B0964E670E00E94810B53
:101390007727C7010E9436038091FC019091FD01DF
:1013A000009711F480E092E09101281B390BC901EC
:1013B00064E670E00E94810BBC0180915101909124
:1013C000520103C061ED77E0C7010E946804D801B3
:1013D0001F961C928091FC019091FD01009711F4E1
:1013E00080E092E0F101E81BF90BE436F1051CF412
:1013F00081E080935301A89580915301882371F077
:1014000060ED77E080915101909152010E94680453
:1014100068EE73E080E090E00E944E010E9462045A
:10142000A1CDEFE5F1E01382128288EE93E0A0E017
:10143000B0E084839583A683B7838AE091E09183AB
:10144000808385EC90E09587848784EC90E0978793
:10145000868780EC90E0918B808B81EC90E0938B81
:10146000828B82EC90E0958B848B86EC90E0978B5E
:10147000868B118E128E138E148E0895CF93DF9368
:101480008230910510F482E090E0E091FE01F0914D
:10149000FF0120E030E0C0E0D0E0309711F1408162
:1014A000518148175907C0F04817590761F48281E4
:1014B0009381209719F09B838A832BC09093FF011F
:1014C0008093FE0126C02115310519F042175307FC
:1014D00018F49A01BE01DF01EF010280F381E02DD3
:1014E000DCCF2115310509F1281B390B24303105DA
:1014F00090F412968D919C9113976115710521F0CE
:10150000FB019383828304C09093FF018093FE01CB
:10151000FD01329644C0FD01E20FF31F81939193C8
:10152000225031092D933C933AC02091FC01309117
:10153000FD01232B41F420910201309103013093EE
:10154000FD012093FC012091000130910101211542
:10155000310541F42DB73EB740910401509105018A
:10156000241B350BE091FC01F091FD01E217F3071C
:10157000A0F42E1B3F0B2817390778F0AC014E5F03
:101580005F4F2417350748F04E0F5F1F5093FD0142
:101590004093FC018193919302C0E0E0F0E0CF0121
:1015A000DF91CF9108950F931F93CF93DF9300970F
:1015B00009F48CC0FC013297138212820091FE0163
:1015C0001091FF010115110581F420813181820FF5
:1015D000931F2091FC013091FD012817390779F5FF
:1015E000F093FD01E093FC0171C0D80140E050E0B0
:1015F000AE17BF0750F412962D913C911397AD0191
:101600002115310509F1D901F3CF9D01DA013383A9
:10161000228360817181860F971F8217930769F477
:10162000EC0128813981260F371F2E5F3F4F318310
:1016300020838A819B8193838283452B29F4F093B5
:10164000FF01E093FE0142C01396FC93EE931297C4
:10165000ED01499159919E01240F351FE217F307BF
:1016600071F480819181840F951F029611969C934D
:101670008E938281938113969C938E931297E0E0D0
:10168000F0E0D80112968D919C911397009719F074
:10169000F8018C01F6CF8D919C9198012E5F3F4F00
:1016A000820F931F2091FC013091FD01281739070B
:1016B00069F4309729F41092FF011092FE0102C0E4
:1016C000138212821093FD010093FC01DF91CF91F0
:1016D0001F910F910895F999FECF92BD81BDF89A9F
:1016E000992780B50895262FF999FECF1FBA92BD8C
:1016F00081BD20BD0FB6F894FA9AF99A0FBE0196F3
:10170000089597FB072E16F4009407D077FD09D0B3
:101710000E94BD0B07FC05D03EF4909581959F4F2C
:101720000895709561957F4F0895A1E21A2EAA1B26
:10173000BB1BFD010DC0AA1FBB1FEE1FFF1FA21781
:10174000B307E407F50720F0A21BB30BE40BF50B7E
:10175000661F771F881F991F1A9469F76095709507
:10176000809590959B01AC01BD01CF010895EE0FCE
:10177000FF1F0590F491E02D0994AA1BBB1B51E1BA
:1017800007C0AA1FBB1FA617B70710F0A61BB70BF1
:10179000881F991F5A95A9F780959095BC01CD0196
:1017A000089581E090E0F8940C94D60BF894FFCF64
:1017B000000000028000000000001F028801B70145
:1017C0006602E801C601DA01000000008A05A605EC
:1017D0000000000027054205F104BC0400000000E1
:1017E00069058005000000004C055F050000000051
:0A17F00088022C0320000D0A0000FF
:00000001FF
